{
  "contractName": "Presale",
  "abi": [
    {
      "inputs": [
        {
          "internalType": "uint256",
          "name": "_rate",
          "type": "uint256"
        },
        {
          "internalType": "address",
          "name": "_wallet",
          "type": "address"
        },
        {
          "internalType": "contract IERC20",
          "name": "_token",
          "type": "address"
        },
        {
          "internalType": "contract IERC20",
          "name": "_usdt",
          "type": "address"
        },
        {
          "internalType": "contract IERC20",
          "name": "_usdc",
          "type": "address"
        },
        {
          "internalType": "uint256",
          "name": "_softCap",
          "type": "uint256"
        },
        {
          "internalType": "uint256",
          "name": "_hardCap",
          "type": "uint256"
        }
      ],
      "stateMutability": "nonpayable",
      "type": "constructor"
    },
    {
      "anonymous": false,
      "inputs": [
        {
          "indexed": true,
          "internalType": "address",
          "name": "previousOwner",
          "type": "address"
        },
        {
          "indexed": true,
          "internalType": "address",
          "name": "newOwner",
          "type": "address"
        }
      ],
      "name": "OwnershipTransferred",
      "type": "event"
    },
    {
      "anonymous": false,
      "inputs": [
        {
          "indexed": true,
          "internalType": "address",
          "name": "buyer",
          "type": "address"
        },
        {
          "indexed": false,
          "internalType": "uint256",
          "name": "amount",
          "type": "uint256"
        },
        {
          "indexed": false,
          "internalType": "uint256",
          "name": "tokenAmount",
          "type": "uint256"
        }
      ],
      "name": "TokensPurchased",
      "type": "event"
    },
    {
      "inputs": [],
      "name": "closingTime",
      "outputs": [
        {
          "internalType": "uint256",
          "name": "",
          "type": "uint256"
        }
      ],
      "stateMutability": "view",
      "type": "function"
    },
    {
      "inputs": [],
      "name": "hardCap",
      "outputs": [
        {
          "internalType": "uint256",
          "name": "",
          "type": "uint256"
        }
      ],
      "stateMutability": "view",
      "type": "function"
    },
    {
      "inputs": [],
      "name": "openingTime",
      "outputs": [
        {
          "internalType": "uint256",
          "name": "",
          "type": "uint256"
        }
      ],
      "stateMutability": "view",
      "type": "function"
    },
    {
      "inputs": [],
      "name": "owner",
      "outputs": [
        {
          "internalType": "address",
          "name": "",
          "type": "address"
        }
      ],
      "stateMutability": "view",
      "type": "function"
    },
    {
      "inputs": [],
      "name": "rate",
      "outputs": [
        {
          "internalType": "uint256",
          "name": "",
          "type": "uint256"
        }
      ],
      "stateMutability": "view",
      "type": "function"
    },
    {
      "inputs": [],
      "name": "softCap",
      "outputs": [
        {
          "internalType": "uint256",
          "name": "",
          "type": "uint256"
        }
      ],
      "stateMutability": "view",
      "type": "function"
    },
    {
      "inputs": [],
      "name": "token",
      "outputs": [
        {
          "internalType": "contract IERC20",
          "name": "",
          "type": "address"
        }
      ],
      "stateMutability": "view",
      "type": "function"
    },
    {
      "inputs": [
        {
          "internalType": "address",
          "name": "newOwner",
          "type": "address"
        }
      ],
      "name": "transferOwnership",
      "outputs": [],
      "stateMutability": "nonpayable",
      "type": "function"
    },
    {
      "inputs": [],
      "name": "usdc",
      "outputs": [
        {
          "internalType": "contract IERC20",
          "name": "",
          "type": "address"
        }
      ],
      "stateMutability": "view",
      "type": "function"
    },
    {
      "inputs": [],
      "name": "usdt",
      "outputs": [
        {
          "internalType": "contract IERC20",
          "name": "",
          "type": "address"
        }
      ],
      "stateMutability": "view",
      "type": "function"
    },
    {
      "inputs": [],
      "name": "wallet",
      "outputs": [
        {
          "internalType": "address",
          "name": "",
          "type": "address"
        }
      ],
      "stateMutability": "view",
      "type": "function"
    },
    {
      "inputs": [],
      "name": "weiRaised",
      "outputs": [
        {
          "internalType": "uint256",
          "name": "",
          "type": "uint256"
        }
      ],
      "stateMutability": "view",
      "type": "function"
    },
    {
      "stateMutability": "payable",
      "type": "receive"
    },
    {
      "inputs": [],
      "name": "buyTokensWithETH",
      "outputs": [],
      "stateMutability": "payable",
      "type": "function"
    },
    {
      "inputs": [
        {
          "internalType": "uint256",
          "name": "amount",
          "type": "uint256"
        }
      ],
      "name": "buyTokensWithUSDT",
      "outputs": [],
      "stateMutability": "nonpayable",
      "type": "function"
    },
    {
      "inputs": [
        {
          "internalType": "uint256",
          "name": "amount",
          "type": "uint256"
        }
      ],
      "name": "buyTokensWithUSDC",
      "outputs": [],
      "stateMutability": "nonpayable",
      "type": "function"
    },
    {
      "inputs": [],
      "name": "withdrawFunds",
      "outputs": [],
      "stateMutability": "nonpayable",
      "type": "function"
    }
  ],
  "bytecode": "0x60806040523480156200001157600080fd5b506040516200228c3803806200228c833981810160405281019062000037919062000519565b336000806101000a81548173ffffffffffffffffffffffffffffffffffffffff021916908373ffffffffffffffffffffffffffffffffffffffff16021790555060008054906101000a900473ffffffffffffffffffffffffffffffffffffffff1673ffffffffffffffffffffffffffffffffffffffff16600073ffffffffffffffffffffffffffffffffffffffff167f8be0079c531659141344cd1fd0a4f28419497f9722a3daafe3b4186f6b6457e060405160405180910390a36000871162000138576040517f08c379a00000000000000000000000000000000000000000000000000000000081526004016200012f90620007b6565b60405180910390fd5b600073ffffffffffffffffffffffffffffffffffffffff168673ffffffffffffffffffffffffffffffffffffffff161415620001ab576040517f08c379a0000000000000000000000000000000000000000000000000000000008152600401620001a29062000860565b60405180910390fd5b600073ffffffffffffffffffffffffffffffffffffffff168573ffffffffffffffffffffffffffffffffffffffff1614156200021e576040517f08c379a000000000000000000000000000000000000000000000000000000000815260040162000215906200083e565b60405180910390fd5b600073ffffffffffffffffffffffffffffffffffffffff168473ffffffffffffffffffffffffffffffffffffffff16141562000291576040517f08c379a000000000000000000000000000000000000000000000000000000000815260040162000288906200081c565b60405180910390fd5b600073ffffffffffffffffffffffffffffffffffffffff168373ffffffffffffffffffffffffffffffffffffffff16141562000304576040517f08c379a0000000000000000000000000000000000000000000000000000000008152600401620002fb90620007d8565b60405180910390fd5b600082116200034a576040517f08c379a00000000000000000000000000000000000000000000000000000000081526004016200034190620007fa565b60405180910390fd5b6000811162000390576040517f08c379a0000000000000000000000000000000000000000000000000000000008152600401620003879062000794565b60405180910390fd5b8660048190555085600a60006101000a81548173ffffffffffffffffffffffffffffffffffffffff021916908373ffffffffffffffffffffffffffffffffffffffff16021790555084600160006101000a81548173ffffffffffffffffffffffffffffffffffffffff021916908373ffffffffffffffffffffffffffffffffffffffff16021790555083600260006101000a81548173ffffffffffffffffffffffffffffffffffffffff021916908373ffffffffffffffffffffffffffffffffffffffff16021790555082600360006101000a81548173ffffffffffffffffffffffffffffffffffffffff021916908373ffffffffffffffffffffffffffffffffffffffff16021790555081600681905550806007819055504260088190555062278d0042620004c1919062000893565b60098190555050505050505050620009bf565b600081519050620004e58162000971565b92915050565b600081519050620004fc816200098b565b92915050565b6000815190506200051381620009a5565b92915050565b600080600080600080600060e0888a0312156200053557600080fd5b6000620005458a828b0162000502565b9750506020620005588a828b01620004d4565b96505060406200056b8a828b01620004eb565b95505060606200057e8a828b01620004eb565b9450506080620005918a828b01620004eb565b93505060a0620005a48a828b0162000502565b92505060c0620005b78a828b0162000502565b91505092959891949750929550565b6000620005d5600d8362000882565b91507f48617264206361702069732030000000000000000000000000000000000000006000830152602082019050919050565b60006200061760098362000882565b91507f52617465206973203000000000000000000000000000000000000000000000006000830152602082019050919050565b60006200065960148362000882565b91507f496e76616c6964205553444320616464726573730000000000000000000000006000830152602082019050919050565b60006200069b600d8362000882565b91507f536f6674206361702069732030000000000000000000000000000000000000006000830152602082019050919050565b6000620006dd60148362000882565b91507f496e76616c6964205553445420616464726573730000000000000000000000006000830152602082019050919050565b60006200071f60158362000882565b91507f496e76616c696420746f6b656e206164647265737300000000000000000000006000830152602082019050919050565b60006200076160168362000882565b91507f496e76616c69642077616c6c65742061646472657373000000000000000000006000830152602082019050919050565b60006020820190508181036000830152620007af81620005c6565b9050919050565b60006020820190508181036000830152620007d18162000608565b9050919050565b60006020820190508181036000830152620007f3816200064a565b9050919050565b6000602082019050818103600083015262000815816200068c565b9050919050565b600060208201905081810360008301526200083781620006ce565b9050919050565b60006020820190508181036000830152620008598162000710565b9050919050565b600060208201905081810360008301526200087b8162000752565b9050919050565b600082825260208201905092915050565b6000620008a08262000938565b9150620008ad8362000938565b9250827fffffffffffffffffffffffffffffffffffffffffffffffffffffffffffffffff03821115620008e557620008e462000942565b5b828201905092915050565b6000620008fd8262000918565b9050919050565b60006200091182620008f0565b9050919050565b600073ffffffffffffffffffffffffffffffffffffffff82169050919050565b6000819050919050565b7f4e487b7100000000000000000000000000000000000000000000000000000000600052601160045260246000fd5b6200097c81620008f0565b81146200098857600080fd5b50565b620009968162000904565b8114620009a257600080fd5b50565b620009b08162000938565b8114620009bc57600080fd5b50565b6118bd80620009cf6000396000f3fe6080604052600436106100f65760003560e01c80635ef8086f1161008a578063b7a8807c11610059578063b7a8807c146102d5578063f2fde38b14610300578063fb86a40414610329578063fc0c546a1461035457610105565b80635ef8086f1461024c5780638da5cb5b14610275578063906a26e0146102a05780639c0caad6146102cb57610105565b80633e413bee116100c65780633e413bee146101a05780634042b66f146101cb5780634b6753bc146101f6578063521eb2731461022157610105565b8062fe8edc1461010a57806324600fc3146101335780632c4e722e1461014a5780632f48ab7d1461017557610105565b366101055761010361037f565b005b600080fd5b34801561011657600080fd5b50610131600480360381019061012c91906110ea565b61058e565b005b34801561013f57600080fd5b5061014861088e565b005b34801561015657600080fd5b5061015f6109f9565b60405161016c9190611642565b60405180910390f35b34801561018157600080fd5b5061018a6109ff565b60405161019791906114c7565b60405180910390f35b3480156101ac57600080fd5b506101b5610a25565b6040516101c291906114c7565b60405180910390f35b3480156101d757600080fd5b506101e0610a4b565b6040516101ed9190611642565b60405180910390f35b34801561020257600080fd5b5061020b610a51565b6040516102189190611642565b60405180910390f35b34801561022d57600080fd5b50610236610a57565b604051610243919061144c565b60405180910390f35b34801561025857600080fd5b50610273600480360381019061026e91906110ea565b610a7d565b005b34801561028157600080fd5b5061028a610d7d565b604051610297919061144c565b60405180910390f35b3480156102ac57600080fd5b506102b5610da6565b6040516102c29190611642565b60405180910390f35b6102d361037f565b005b3480156102e157600080fd5b506102ea610dac565b6040516102f79190611642565b60405180910390f35b34801561030c57600080fd5b5061032760048036038101906103229190611098565b610db2565b005b34801561033557600080fd5b5061033e610f54565b60405161034b9190611642565b60405180910390f35b34801561036057600080fd5b50610369610f5a565b60405161037691906114c7565b60405180910390f35b600854421015801561039357506009544211155b6103d2576040517f08c379a00000000000000000000000000000000000000000000000000000000081526004016103c990611542565b60405180910390fd5b60006103e960045434610f8090919063ffffffff16565b905061040034600554610ffb90919063ffffffff16565b600581905550600754600554111561044d576040517f08c379a000000000000000000000000000000000000000000000000000000000815260040161044490611622565b60405180910390fd5b600160009054906101000a900473ffffffffffffffffffffffffffffffffffffffff1673ffffffffffffffffffffffffffffffffffffffff1663a9059cbb33836040518363ffffffff1660e01b81526004016104aa92919061149e565b602060405180830381600087803b1580156104c457600080fd5b505af11580156104d8573d6000803e3d6000fd5b505050506040513d601f19601f820116820180604052508101906104fc91906110c1565b61053b576040517f08c379a000000000000000000000000000000000000000000000000000000000815260040161053290611562565b60405180910390fd5b3373ffffffffffffffffffffffffffffffffffffffff167f8fafebcaf9d154343dad25669bfa277f4fbacd7ac6b0c4fed522580e040a0f33348360405161058392919061165d565b60405180910390a250565b60085442101580156105a257506009544211155b6105e1576040517f08c379a00000000000000000000000000000000000000000000000000000000081526004016105d890611542565b60405180910390fd5b60006105f860045483610f8090919063ffffffff16565b9050600360009054906101000a900473ffffffffffffffffffffffffffffffffffffffff1673ffffffffffffffffffffffffffffffffffffffff166323b872dd3330856040518463ffffffff1660e01b815260040161065993929190611467565b602060405180830381600087803b15801561067357600080fd5b505af1158015610687573d6000803e3d6000fd5b505050506040513d601f19601f820116820180604052508101906106ab91906110c1565b6106ea576040517f08c379a00000000000000000000000000000000000000000000000000000000081526004016106e1906114e2565b60405180910390fd5b6106ff82600554610ffb90919063ffffffff16565b600581905550600754600554111561074c576040517f08c379a000000000000000000000000000000000000000000000000000000000815260040161074390611622565b60405180910390fd5b600160009054906101000a900473ffffffffffffffffffffffffffffffffffffffff1673ffffffffffffffffffffffffffffffffffffffff1663a9059cbb33836040518363ffffffff1660e01b81526004016107a992919061149e565b602060405180830381600087803b1580156107c357600080fd5b505af11580156107d7573d6000803e3d6000fd5b505050506040513d601f19601f820116820180604052508101906107fb91906110c1565b61083a576040517f08c379a000000000000000000000000000000000000000000000000000000000815260040161083190611562565b60405180910390fd5b3373ffffffffffffffffffffffffffffffffffffffff167f8fafebcaf9d154343dad25669bfa277f4fbacd7ac6b0c4fed522580e040a0f33838360405161088292919061165d565b60405180910390a25050565b3373ffffffffffffffffffffffffffffffffffffffff166108ad610d7d565b73ffffffffffffffffffffffffffffffffffffffff1614610903576040517f08c379a00000000000000000000000000000000000000000000000000000000081526004016108fa906115a2565b60405180910390fd5b6009544211610947576040517f08c379a000000000000000000000000000000000000000000000000000000000815260040161093e906115c2565b60405180910390fd5b600654600554101561098e576040517f08c379a0000000000000000000000000000000000000000000000000000000008152600401610985906115e2565b60405180910390fd5b600a60009054906101000a900473ffffffffffffffffffffffffffffffffffffffff1673ffffffffffffffffffffffffffffffffffffffff166108fc479081150290604051600060405180830381858888f193505050501580156109f6573d6000803e3d6000fd5b50565b60045481565b600260009054906101000a900473ffffffffffffffffffffffffffffffffffffffff1681565b600360009054906101000a900473ffffffffffffffffffffffffffffffffffffffff1681565b60055481565b60095481565b600a60009054906101000a900473ffffffffffffffffffffffffffffffffffffffff1681565b6008544210158015610a9157506009544211155b610ad0576040517f08c379a0000000000000000000000000000000000000000000000000000000008152600401610ac790611542565b60405180910390fd5b6000610ae760045483610f8090919063ffffffff16565b9050600260009054906101000a900473ffffffffffffffffffffffffffffffffffffffff1673ffffffffffffffffffffffffffffffffffffffff166323b872dd3330856040518463ffffffff1660e01b8152600401610b4893929190611467565b602060405180830381600087803b158015610b6257600080fd5b505af1158015610b76573d6000803e3d6000fd5b505050506040513d601f19601f82011682018060405250810190610b9a91906110c1565b610bd9576040517f08c379a0000000000000000000000000000000000000000000000000000000008152600401610bd090611602565b60405180910390fd5b610bee82600554610ffb90919063ffffffff16565b6005819055506007546005541115610c3b576040517f08c379a0000000000000000000000000000000000000000000000000000000008152600401610c3290611622565b60405180910390fd5b600160009054906101000a900473ffffffffffffffffffffffffffffffffffffffff1673ffffffffffffffffffffffffffffffffffffffff1663a9059cbb33836040518363ffffffff1660e01b8152600401610c9892919061149e565b602060405180830381600087803b158015610cb257600080fd5b505af1158015610cc6573d6000803e3d6000fd5b505050506040513d601f19601f82011682018060405250810190610cea91906110c1565b610d29576040517f08c379a0000000000000000000000000000000000000000000000000000000008152600401610d2090611562565b60405180910390fd5b3373ffffffffffffffffffffffffffffffffffffffff167f8fafebcaf9d154343dad25669bfa277f4fbacd7ac6b0c4fed522580e040a0f338383604051610d7192919061165d565b60405180910390a25050565b60008060009054906101000a900473ffffffffffffffffffffffffffffffffffffffff16905090565b60065481565b60085481565b3373ffffffffffffffffffffffffffffffffffffffff16610dd1610d7d565b73ffffffffffffffffffffffffffffffffffffffff1614610e27576040517f08c379a0000000000000000000000000000000000000000000000000000000008152600401610e1e906115a2565b60405180910390fd5b600073ffffffffffffffffffffffffffffffffffffffff168173ffffffffffffffffffffffffffffffffffffffff161415610e97576040517f08c379a0000000000000000000000000000000000000000000000000000000008152600401610e8e90611502565b60405180910390fd5b8073ffffffffffffffffffffffffffffffffffffffff1660008054906101000a900473ffffffffffffffffffffffffffffffffffffffff1673ffffffffffffffffffffffffffffffffffffffff167f8be0079c531659141344cd1fd0a4f28419497f9722a3daafe3b4186f6b6457e060405160405180910390a3806000806101000a81548173ffffffffffffffffffffffffffffffffffffffff021916908373ffffffffffffffffffffffffffffffffffffffff16021790555050565b60075481565b600160009054906101000a900473ffffffffffffffffffffffffffffffffffffffff1681565b600080831415610f935760009050610ff5565b60008284610fa1919061171e565b9050828482610fb091906116ed565b14610ff0576040517f08c379a0000000000000000000000000000000000000000000000000000000008152600401610fe790611582565b60405180910390fd5b809150505b92915050565b600080828461100a9190611697565b90508381101561104f576040517f08c379a000000000000000000000000000000000000000000000000000000000815260040161104690611522565b60405180910390fd5b8091505092915050565b60008135905061106881611842565b92915050565b60008151905061107d81611859565b92915050565b60008135905061109281611870565b92915050565b6000602082840312156110aa57600080fd5b60006110b884828501611059565b91505092915050565b6000602082840312156110d357600080fd5b60006110e18482850161106e565b91505092915050565b6000602082840312156110fc57600080fd5b600061110a84828501611083565b91505092915050565b61111c81611778565b82525050565b61112b816117c0565b82525050565b600061113e601483611686565b91507f55534443207472616e73666572206661696c65640000000000000000000000006000830152602082019050919050565b600061117e602683611686565b91507f4f776e61626c653a206e6577206f776e657220697320746865207a65726f206160008301527f64647265737300000000000000000000000000000000000000000000000000006020830152604082019050919050565b60006111e4601b83611686565b91507f536166654d6174683a206164646974696f6e206f766572666c6f7700000000006000830152602082019050919050565b6000611224601283611686565b91507f50726573616c65206e6f742061637469766500000000000000000000000000006000830152602082019050919050565b6000611264601583611686565b91507f546f6b656e207472616e73666572206661696c656400000000000000000000006000830152602082019050919050565b60006112a4602183611686565b91507f536166654d6174683a206d756c7469706c69636174696f6e206f766572666c6f60008301527f77000000000000000000000000000000000000000000000000000000000000006020830152604082019050919050565b600061130a602083611686565b91507f4f776e61626c653a2063616c6c6572206973206e6f7420746865206f776e65726000830152602082019050919050565b600061134a601283611686565b91507f50726573616c65206e6f7420636c6f73656400000000000000000000000000006000830152602082019050919050565b600061138a601483611686565b91507f536f667420636170206e6f7420726561636865640000000000000000000000006000830152602082019050919050565b60006113ca601483611686565b91507f55534454207472616e73666572206661696c65640000000000000000000000006000830152602082019050919050565b600061140a601083611686565b91507f48617264206361702072656163686564000000000000000000000000000000006000830152602082019050919050565b611446816117b6565b82525050565b60006020820190506114616000830184611113565b92915050565b600060608201905061147c6000830186611113565b6114896020830185611113565b611496604083018461143d565b949350505050565b60006040820190506114b36000830185611113565b6114c0602083018461143d565b9392505050565b60006020820190506114dc6000830184611122565b92915050565b600060208201905081810360008301526114fb81611131565b9050919050565b6000602082019050818103600083015261151b81611171565b9050919050565b6000602082019050818103600083015261153b816111d7565b9050919050565b6000602082019050818103600083015261155b81611217565b9050919050565b6000602082019050818103600083015261157b81611257565b9050919050565b6000602082019050818103600083015261159b81611297565b9050919050565b600060208201905081810360008301526115bb816112fd565b9050919050565b600060208201905081810360008301526115db8161133d565b9050919050565b600060208201905081810360008301526115fb8161137d565b9050919050565b6000602082019050818103600083015261161b816113bd565b9050919050565b6000602082019050818103600083015261163b816113fd565b9050919050565b6000602082019050611657600083018461143d565b92915050565b6000604082019050611672600083018561143d565b61167f602083018461143d565b9392505050565b600082825260208201905092915050565b60006116a2826117b6565b91506116ad836117b6565b9250827fffffffffffffffffffffffffffffffffffffffffffffffffffffffffffffffff038211156116e2576116e16117e4565b5b828201905092915050565b60006116f8826117b6565b9150611703836117b6565b92508261171357611712611813565b5b828204905092915050565b6000611729826117b6565b9150611734836117b6565b9250817fffffffffffffffffffffffffffffffffffffffffffffffffffffffffffffffff048311821515161561176d5761176c6117e4565b5b828202905092915050565b600061178382611796565b9050919050565b60008115159050919050565b600073ffffffffffffffffffffffffffffffffffffffff82169050919050565b6000819050919050565b60006117cb826117d2565b9050919050565b60006117dd82611796565b9050919050565b7f4e487b7100000000000000000000000000000000000000000000000000000000600052601160045260246000fd5b7f4e487b7100000000000000000000000000000000000000000000000000000000600052601260045260246000fd5b61184b81611778565b811461185657600080fd5b50565b6118628161178a565b811461186d57600080fd5b50565b611879816117b6565b811461188457600080fd5b5056fea2646970667358221220f1e4c5483144a74ccadbbb1d0ef671446e43ec3b7eaf37c49cc61ad9bfa194ea64736f6c63430008000033",
  "immutableReferences": {},
  "source": "// SPDX-License-Identifier: MIT\r\npragma solidity ^0.8.0;\r\n\r\n// Minimalistic ERC20 Interface\r\ninterface IERC20 {\r\n    function totalSupply() external view returns (uint256);\r\n\r\n    function balanceOf(address account) external view returns (uint256);\r\n\r\n    function transfer(address recipient, uint256 amount) external returns (bool);\r\n\r\n    function allowance(address owner, address spender) external view returns (uint256);\r\n\r\n    function approve(address spender, uint256 amount) external returns (bool);\r\n\r\n    function transferFrom(\r\n        address sender,\r\n        address recipient,\r\n        uint256 amount\r\n    ) external returns (bool);\r\n}\r\n\r\n// SafeMath Implementation\r\nlibrary SafeMath {\r\n    function add(uint256 a, uint256 b) internal pure returns (uint256) {\r\n        uint256 c = a + b;\r\n        require(c >= a, \"SafeMath: addition overflow\");\r\n\r\n        return c;\r\n    }\r\n\r\n    function sub(uint256 a, uint256 b) internal pure returns (uint256) {\r\n        require(b <= a, \"SafeMath: subtraction overflow\");\r\n        uint256 c = a - b;\r\n\r\n        return c;\r\n    }\r\n\r\n    function mul(uint256 a, uint256 b) internal pure returns (uint256) {\r\n        if (a == 0) {\r\n            return 0;\r\n        }\r\n\r\n        uint256 c = a * b;\r\n        require(c / a == b, \"SafeMath: multiplication overflow\");\r\n\r\n        return c;\r\n    }\r\n\r\n    function div(uint256 a, uint256 b) internal pure returns (uint256) {\r\n        require(b > 0, \"SafeMath: division by zero\");\r\n        uint256 c = a / b;\r\n\r\n        return c;\r\n    }\r\n}\r\n\r\n// Custom Ownable Contract\r\nabstract contract Ownable {\r\n    address private _owner;\r\n\r\n    event OwnershipTransferred(address indexed previousOwner, address indexed newOwner);\r\n\r\n    constructor() {\r\n        _owner = msg.sender;\r\n        emit OwnershipTransferred(address(0), _owner);\r\n    }\r\n\r\n    function owner() public view returns (address) {\r\n        return _owner;\r\n    }\r\n\r\n    modifier onlyOwner() {\r\n        require(owner() == msg.sender, \"Ownable: caller is not the owner\");\r\n        _;\r\n    }\r\n\r\n    function transferOwnership(address newOwner) public onlyOwner {\r\n        require(newOwner != address(0), \"Ownable: new owner is the zero address\");\r\n        emit OwnershipTransferred(_owner, newOwner);\r\n        _owner = newOwner;\r\n    }\r\n}\r\n\r\n// Presale Contract\r\ncontract Presale is Ownable {\r\n    using SafeMath for uint256;\r\n\r\n    IERC20 public token;\r\n    IERC20 public usdt;\r\n    IERC20 public usdc;\r\n    uint256 public rate;\r\n    uint256 public weiRaised;\r\n    uint256 public softCap;\r\n    uint256 public hardCap;\r\n    uint256 public openingTime;\r\n    uint256 public closingTime;\r\n    address public wallet;\r\n\r\n    event TokensPurchased(address indexed buyer, uint256 amount, uint256 tokenAmount);\r\n\r\n    constructor(\r\n        uint256 _rate,\r\n        address _wallet,\r\n        IERC20 _token,\r\n        IERC20 _usdt,\r\n        IERC20 _usdc,\r\n        uint256 _softCap,\r\n        uint256 _hardCap\r\n    ) {\r\n        require(_rate > 0, \"Rate is 0\");\r\n        require(_wallet != address(0), \"Invalid wallet address\");\r\n        require(address(_token) != address(0), \"Invalid token address\");\r\n        require(address(_usdt) != address(0), \"Invalid USDT address\");\r\n        require(address(_usdc) != address(0), \"Invalid USDC address\");\r\n        require(_softCap > 0, \"Soft cap is 0\");\r\n        require(_hardCap > 0, \"Hard cap is 0\");\r\n\r\n        rate = _rate;\r\n        wallet = _wallet;\r\n        token = _token;\r\n        usdt = _usdt;\r\n        usdc = _usdc;\r\n        softCap = _softCap;\r\n        hardCap = _hardCap;\r\n        openingTime = block.timestamp; // Current time\r\n        closingTime = block.timestamp + 30 * 24 * 60 * 60; // 30 days from now\r\n    }\r\n\r\n    function buyTokensWithETH() public payable {\r\n        require(block.timestamp >= openingTime && block.timestamp <= closingTime, \"Presale not active\");\r\n        uint256 tokens = msg.value.mul(rate);\r\n        weiRaised = weiRaised.add(msg.value);\r\n        require(weiRaised <= hardCap, \"Hard cap reached\");\r\n        require(token.transfer(msg.sender, tokens), \"Token transfer failed\");\r\n        emit TokensPurchased(msg.sender, msg.value, tokens);\r\n    }\r\n\r\n    function buyTokensWithUSDT(uint256 amount) public {\r\n        require(block.timestamp >= openingTime && block.timestamp <= closingTime, \"Presale not active\");\r\n        uint256 tokens = amount.mul(rate);\r\n        require(usdt.transferFrom(msg.sender, address(this), amount), \"USDT transfer failed\");\r\n        weiRaised = weiRaised.add(amount);\r\n        require(weiRaised <= hardCap, \"Hard cap reached\");\r\n        require(token.transfer(msg.sender, tokens), \"Token transfer failed\");\r\n        emit TokensPurchased(msg.sender, amount, tokens);\r\n    }\r\n\r\n    function buyTokensWithUSDC(uint256 amount) public {\r\n        require(block.timestamp >= openingTime && block.timestamp <= closingTime, \"Presale not active\");\r\n        uint256 tokens = amount.mul(rate);\r\n        require(usdc.transferFrom(msg.sender, address(this), amount), \"USDC transfer failed\");\r\n        weiRaised = weiRaised.add(amount);\r\n        require(weiRaised <= hardCap, \"Hard cap reached\");\r\n        require(token.transfer(msg.sender, tokens), \"Token transfer failed\");\r\n        emit TokensPurchased(msg.sender, amount, tokens);\r\n    }\r\n\r\n    function withdrawFunds() public onlyOwner {\r\n        require(block.timestamp > closingTime, \"Presale not closed\");\r\n        require(weiRaised >= softCap, \"Soft cap not reached\");\r\n        payable(wallet).transfer(address(this).balance);\r\n    }\r\n\r\n    receive() external payable {\r\n        buyTokensWithETH();\r\n    }\r\n}\r\n",
  "sourcePath": "C:\\Users\\USER\\Desktop\\truffle\\contracts\\Presale.sol",
  "compiler": {
    "name": "solc",
    "version": "0.8.0+commit.c7dfd78e.Emscripten.clang"
  },
  "schemaVersion": "3.4.16",
  "updatedAt": "2024-08-20T07:25:12.445Z",
  "devdoc": {
    "kind": "dev",
    "methods": {},
    "version": 1
  },
  "userdoc": {
    "kind": "user",
    "methods": {},
    "version": 1
  }
}